:020000040800F2
:1000000038180120F5010008DD9B0008CD6F0008BD
:10001000B99A0008F5170008F3E600080000000090
:1000200000000000000000000000000075DD000876
:10003000D518000800000000FD0F00083DB40008BE
:100040002F0200082F0200082F0200082F020008CC
:100050002F0200082F0200082F0200082F020008BC
:100060002F0200082F0200082F0200082F020008AC
:100070002F0200082F0200082F0200082F0200089C
:100080002F0200082F0200082F0200082F0200088C
:100090002F0200082F0200082F0200082F0200087C
:1000A0002F0200082F0200082F0200082F0200086C
:1000B0002F020008F5E100082F0200082F020008B7
:1000C0002F0200082F0200082F0200082F0200084C
:1000D0002F0200082F0200082F020008E9E40008A0
:1000E0002F0200082F0200082F0200082F0200082C
:1000F0002F0200082F0200082F0200082F0200081C
:100100002F0200082F0200082F0200082F0200080B
:100110002F0200082F0200082F0200082F020008FB
:100120002F0200082F0200082F0200082F020008EB
:100130002F0200082F0200082F0200082F020008DB
:100140002F0200082F0200082F0200082F020008CB
:100150002F0200082F0200082F0200082F020008BB
:100160002F0200082F0200082F0200082F020008AB
:100170002F0200082F0200082F0200082F0200089B
:100180002F0200082F0200082F0200082F0200088B
:100190002F0200082F0200082F0200082F0200087B
:1001A0005D9400082F020008A1180008DFF80CD0A9
:1001B00000F05AFC0048004721B901083818012016
:1001C00072B6704762B67047EFF3108072B6704730
:1001D00080F31088704730BF704720BF7047B0FA77
:1001E00080F0704790FAA0F0B0FA80F0704790FA73
:1001F000A0F07047DFF83800016841F47001016039
:10020000BFF34F8FDFF82C00016821F040410160FF
:10021000BFF36F8F0848804708480047FEE7FEE7B6
:10022000FEE7FEE7FEE7FEE7FEE7FEE7FEE7FEE7A6
:1002300088ED00E034EF00E05DDF0008AD0100086C
:100240002DE9F05F0546002092469B46884606460B
:10025000814640241BE0284641464746224600F09E
:10026000E7FA53465A46C01A914110D31146184630
:10027000224600F0CEFA2D1A67EB01084F462246BF
:100280000120002100F0C5FA17EB00094E41201EA5
:10029000A4F10104DFDC484631462A464346BDE866
:1002A000F09F10B5441A0346944209D284181144B1
:1002B00003E011F8013D04F8013D521EF9D210BDD2
:1002C00040EA0104A40703D009E010C9121F10C3BB
:1002D000042AFAD203E011F8014B03F8014B521E35
:1002E000F9D210BDD2B201E000F8012B491EFBD2B9
:1002F00070470022F6E710B513460A460446194631
:10030000FFF7F0FF204610BD10B5044604E00B785F
:1003100000F8013B03B1491C521EF8D2204610BD23
:10032000421C10F8011B0029FBD1801A704730B520
:1003300004460020034600E05B1C934203D2E05CCD
:10034000CD5C401BF8D030BD034611F8012B00F8FE
:10035000012B002AF9D1184670472DE9FE4F80463F
:1003600081EA0300C00F0C46009021F0004123F009
:100370000045B8EB0200A94105D24046214690460F
:100380001C460B46024623F00040104347D0270D81
:10039000C7F30A00C3F30A510290401A01904028A3
:1003A0006BDAC3F3130040F4801B0098924620B12F
:1003B0000023D2EB030A63EB0B0B01985946C0F103
:1003C0004002504600F025FA06460D465046594672
:1003D000019A00F03DFA10EB08006141002487EA21
:1003E000115284EAE7731A4340D0009A62B3019A2B
:1003F000012A4FEA075215DC001B61EB02014FF0A6
:10040000004202EA0752CDE90042001C41F580118A
:1004100032462B4600F0C2FA03B0BDE8F08F4046EA
:100420002146F9E7001B61EB0201001C41F5801336
:1004300000185B412018A2F5001747EB030140EAC2
:10044000D570B6196D4111E06D084FEA360645EAE0
:10045000C0754FEA0752001B61EB0201001C41F519
:10046000801149084FEA30000019514132462B46AD
:1004700003B0BDE8F04F00F082BA009801224000BE
:100480000023D0EB020263EBE073009821464FEAB1
:10049000E074B8EB000061EB0401E9E783F000438E
:1004A0005BE781F0004158E72DE9FE4F81EA030444
:1004B00004F0004421F0004100944FF0000B23F0C1
:1004C000004350EA01045ED052EA03045BD0C3F358
:1004D0000A54C1F30A552C44A4F2F3340194A0FB4E
:1004E0000254C1F3130141F48011C3F3130343F425
:1004F000801301FB024400FB034E840A970A44EA7E
:10050000815447EA8357A4FB076802958D0A05FBCF
:1005100007854FEA932C04FB0C542705029D4FEAF4
:10052000065847EA1637B5EB08056EEB070C870E41
:10053000920E47EA811742EA8312A7FB0201B6EB4B
:100540000B0164EB00042B0D43EA0C335E1844EB03
:100550001C50DA465146E7FB0201C5F313044FEA8B
:100560000B3343EA14534FEA0432019C43EA060377
:10057000A4F10C040294009CCDE900B400F00EFA42
:1005800003B0BDE8F08F00200146F9E72DE9F04DFA
:1005900081EA030404F0004B21F0004514464FF0BB
:1005A000000A23F0004150EA050220D054EA01027B
:1005B0001DD0C5F30A570246C5F31303C1F3130058
:1005C000C1F30A5640F4801543F48013A7EB0608E4
:1005D000101BD64608F2FD3873EB050002D308F174
:1005E000010801E092185B41B8F1000F03DA002026
:1005F0000146BDE8F08D00204FF480110646844688
:100600000EE0171B73EB050705D3121B63EB050305
:1006100006434CEA010C49084FEA300092185B414E
:1006200050EA0107EDD152EA030012D082EA040039
:1006300083EA0501084305D0101BAB4106D2012215
:10064000002306E000224FF0004302E06FF00102B9
:1006500053101AEB06004CEB085110EB0A0041EB6B
:100660000B01BDE8F04D00F08AB90EB5C10F80EA6C
:10067000E0700844CA07002140F233438DE80E00C1
:100680000A460B4600F08AF903B000BD0EB540F2F1
:10069000334102910021CDE900110A460B4600F0DA
:1006A0007DF903B000BD70B5C1F30A5201F00045F9
:1006B0000024C1F3130140F2FF3341F480119A4248
:1006C00001DA002070BD40F233439A42A2F2334275
:1006D00003DC524200F0ACF800E090402C43F1D033
:1006E000404270BDC1F30A5210B5C1F3130140F28C
:1006F000FF3341F480119A4201DA002010BD40F22C
:1007000033439A42A2F2334203DC524200F090F8A3
:1007100010BD904010BD00F0004230F000400AD003
:10072000C10D01F56071C0F3160042EA0151C20823
:1007300040071143704700200146704730B5041E42
:1007400071F1000404DB4FF00044404264EB01010E
:10075000141E73F1000405DB1C464FF000435242A7
:1007600063EB04038B4208BF824230BD30B5041EE8
:1007700071F1000404DB4FF00044404264EB0101DE
:10078000141E73F1000405DB1C464FF00043524277
:1007900063EB0403994208BF904230BD01F000436F
:1007A00030B421F0004150EA010206D00A0DA2F552
:1007B0006072C1F31301002A02DC30BC00207047D4
:1007C000440F44EAC104C100E01830BC00EBC25041
:1007D00000F09EB8A0E8004FF0C040F804DB01B57F
:1007E000AFF30080BDE8024001C10020704700F176
:1007F0002C080C4658F8040DAFF3008058F8040D8F
:100800008546200008BF012038E9F00018E9004FB4
:100810007047202A04DB203A00FA02F100207047DA
:100820009140C2F1200320FA03F31943904070472E
:10083000202A04DB203A21FA02F00021704721FA35
:1008400002F3D040C2F1200291400843194670479C
:10085000202A06DBCB17203A41FA02F043EAE07384
:1008600006E041FA02F3D040C2F120029140084371
:10087000194670470FB4002300B589B00CA9009148
:100880000B996FF00042CB601E4B06931E4B0793F3
:100890000423CDE901321D4A089202466B4600202E
:1008A00000F07AF909B05DF814FB70B586B0064621
:1008B0004FF0FF300091CDE90101002015460C46B4
:1008C00004903246694604A8FFF7D4FF0246049814
:1008D000211825B108B1084600E020462860049898
:1008E00000280DD0002A02DD0098884208D0081B9D
:1008F0000094CDE901043246694604A8FFF7BAFF27
:1009000006B070BDD10D0008EF0D00088D0A00087B
:100910000029A8BF7047401C490008BF20F0010013
:10092000704710B4B0FA80FC00FA0CF050EA0104F1
:1009300004BF10BC704749B1CCF1200421FA04F483
:1009400011FA0CF118BF012121430843A3EB0C015C
:10095000CB1D4FEA00614FEA102042BF002010BCBF
:10096000704700EBC35010440029A4BF10BC70476F
:10097000401C490008BF20F0010010BC704710B5B2
:10098000141E73F1000408DA401C41F100019218B2
:100990005B411A4301D120F0010010BD2DE9F04D5B
:1009A00092469B4611B1B1FA81F202E0B0FA80F2B0
:1009B00020329046FFF72DFF04460F4640EA0A001A
:1009C00041EA0B0153465A46084313D0114653EAF5
:1009D000010019D0C8F140025046FFF729FF054633
:1009E0000E46504659464246FFF713FF084305D0CE
:1009F000012004E020463946BDE8F08D0020054383
:100A000046EAE0762C4337430A986305E40AA0EBF4
:100A100008000022FD0A44EA47540A3002D50020AB
:100A20000146E9E7010510196941DDE908450019AA
:100A30006941BDE8F04DA2E770B521F000430343E2
:100A40000CD0C1F30A550024D5EB040564EB040374
:100A5000D617AD1AB34102DB0020014670BD201845
:100A600041EB025170BD0000064C074D06E0E06806
:100A700040F0010394E8070098471034AC42F6D3E5
:100A8000FFF798FB2CCD04084CCD0408C0B24FF4FE
:100A9000F05100F00FBA00002DE9FF4F087881B047
:100AA0009946FF2805D0491C2D2804D00024002396
:100AB00008E000230BE00124F9E703EB830300EBDC
:100AC0004303491C0878FF28F7D104B15B4200209A
:100AD0000090147801462D2C01D02B2C04D1521CEF
:100AE0002D2C12D00024009400251678FF2E0ED055
:100AF0000A24A0FB04C801FB0481002700FB0711A6
:100B0000521C16EB0C006941EFE70124EBE7994416
:100B100050EA01020ED00024AA4D2646DFF8A88232
:100B200000F0DCF982468B46B9F1000009DAC9F120
:100B300000071BE001980021C0E9001105B0BDE8E5
:100B4000F08F074612E0F80707D022462B463046C2
:100B50004146FFF7A9FC0646884622462B4610462A
:100B60001946FFF7A1FC04460D467F10002FEAD17D
:100B7000B9F1000F324643465046594602DAFFF7B4
:100B800005FD01E0FFF790FC009A0AB181F00041F9
:100B9000019AC2E90001D1E72DE9FF4F1F468DB050
:100BA000D7E901464FF0FF382E2045464FF00009A7
:100BB0000B90B9696D1C0E988847396A8246884740
:100BC0000028F6D1BAF1FF3F0AD024F4D064002EF9
:100BD00011DDBAF12B0F08D0BAF12D0F0BD102E0C5
:100BE000404611B0ABE744F48064B9696D1C0E98BF
:100BF00088478246761E6946600501D52D2000E0B3
:100C00002B208DF8000001F1010B0DF1200809E007
:100C1000B9696D1C0E98884782460F9844F4007499
:100C2000761E0560002E02DDBAF1300FF0D00B9970
:100C30008A453ED144F0800406E00F99681CA9F172
:100C4000010944F400740860B9696D1C761E0E98A1
:100C5000884782463028F0D02BE00B998A4505D191
:100C6000200603D444F08004761E18E0504618F0A5
:100C700098F808B30DF11301761E44F400748B4507
:100C800008D2AAF130000BF8010B200607D5A9F114
:100C9000010003E0200602D409F101008146A0050D
:100CA00002D50F99681C0860B9696D1C0E988847B9
:100CB0008246002ED1DC53E0002E51DDBAF1650FE3
:100CC00002D0BAF1450F4BD1A00549D5B9696D1CC9
:100CD00024F44074761E0E9888478246002E0CDD60
:100CE0002B2804D0BAF12D0F07D144F48074B969D0
:100CF0006D1C0E9888478246761EE00501D52D2191
:100D000000E02B2108F8011BCDF82C8021E00DF12B
:100D10002901761E44F4007488450CD2AAF13000F3
:100D200010F0FF0088F8000002D10B99884509D91E
:100D300008F1010806E0E00501D5244801E042F28F
:100D40000F708146B9696D1C0E98884782460F98CE
:100D50000560002E04DD504618F023F80028D6D197
:100D6000F9690E988847FF208BF8000088F800008A
:100D70000020069007904B466A4608A906A8FFF790
:100D80008BFEA00502D46FF001002AE714F0240FB7
:100D90000AD0E00714D1DDE906123868031D3B6074
:100DA0000068C0E900120BE0DDE90601FFF7F6FC80
:100DB0000146E00704D13868021D3A60006801600E
:100DC00028460EE7000024400000F03FF1D8FFFF66
:100DD000426842B1016811F8013B23B1521EC0E9DB
:100DE0000012184670470121C160881E7047426892
:100DF0005AB1C368016843B983688B4205D0491E64
:100E0000521CC0E90012002070474FF0FF307047BD
:100E10002DE9F04D00231A461B1A8A4103DB0020FE
:100E20000146BDE8F08DC1F30A52C1F3130141F44C
:100E300080154FF0000BD10702D100186D41521EF2
:100E40000027044640F2FF11384601EB620A3E4695
:100E50008046024600204FF48011FFF7E9FCC219DA
:100E60007141BB1846EB0100B4EB030C75EB000CB1
:100E700004D3E41A65EB000517460E46241908F161
:100E800001006D4180463428E3DDF91946EB060088
:100E9000091BA84103D24FF0FF32134601E00022A4
:100EA00013461BEB070046EB0A51BDE8F04DFFF778
:100EB00066BD00007F2801D9002208E0064A02EB47
:100EC0005002C007127800D1120902F00F0201206F
:100ED000904008407047000018CB04080EB540F25F
:100EE000334202920022CDE900221346FFF756FD5D
:100EF00003B000BD70B58C1810F8015B15F0070346
:100F000001D110F8013B2A1106D110F8012B03E0A2
:100F100010F8016B01F8016B5B1EF9D12B0705D4AA
:100F20000023521E0DD401F8013BFAE710F8013BF3
:100F3000CB1A921C03E013F8015B01F8015B521E0F
:100F4000F9D5A142D8D3002070BD0000EFF309818C
:100F500041B1F1EE101A40F8041D20ED200A3B4982
:100F60000A6810607047B0EC200A02C8E1EE101A5F
:100F700037490A681060704772B64EF62250CEF2BA
:100F8000000040F2FF01C0F20001017040F2881041
:100F9000C2F20000016881F3088840F2CE10C2F26C
:100FA000000040F2CF11C2F200010A78027040F254
:100FB0005025C2F2000540F25421C2F200010A6835
:100FC0002A60106880F30988EFF3148040F0020073
:100FD00080F31488BFF36F8FBDE8F00F0FBCBDE83E
:100FE000005006BC62B608471A484FF080510160B5
:100FF000704718484FF080510160704772B6EFF3A8
:10100000098020E9F00F40F25025C2F200052E6859
:10101000306074460AF058F840F2CE10C2F2000078
:1010200040F2CF11C2F200010A78027040F254215E
:10103000C2F200010A682A6044F0F40E1068B0E8B9
:10104000F00F80F3098862B670470000500200205C
:101050005402002004ED00E0002800DC404270470C
:1010600000B58BB00AA8072100220592CDE9062120
:10107000089011464FF480622048D0F898011F4B29
:10108000CDE90130CDE90321042000231C4A1DA134
:101090000090204809F066FB0AA80721002205926B
:1010A000CDE906210890114680221B48006B1A4B9F
:1010B000CDE90130CDE9032105200023174A18A10D
:1010C00000901B4809F04EFB0AA807210022059258
:1010D000CDE90621089080211648006B154BCDE91B
:1010E0000130CDE9031206201346134A13A10090E4
:1010F000164809F037FB0BB000BD00005821002056
:101100007B110008465020204571756174696F6E2F
:10111000203100009820002018320020F5930008AC
:101120004C45445F53797354656D436865636B0048
:1011300058310020D83400209D190008454E434FF7
:101140004445525F5461736B000000001834002066
:101150000EB500F029F802A809F082FAFFF780FF27
:101160000AE002F0BDF802A8002114230A46CDE9E6
:10117000001008460AF056F8F3E70EB508F05EFCDA
:1011800009E002A800214FF4FA730A46CDE90010E5
:1011900008460AF047F8F4E71FB568460CF00CF96A
:1011A000019804B010BD000010B5012108030CF037
:1011B000B3F808F0F5F818F0FDFB0CF067F80DF047
:1011C0008DF90CF07DFB00F067F818F0C1FC00F021
:1011D00083FB01F09FFF02F0C7F906F0CFF8012270
:1011E00011461D4805F058FF1B4800781B49086050
:1011F00003F0C0FC1A4804F0A1FA4FF4D2724FF485
:101200002A7118A003F0CAF84FF4E1724FF42F715D
:1012100018A003F0C3F81A4804F090FAC8224FF45B
:10122000967118A003F0BAF84FF47A7003F020F822
:10123000C822510014A003F0B1F84FF47A7003F003
:1012400017F8C8224FF4FA7110A003F0A7F84FF472
:101250007A7003F00DF810BD3C000020480100201A
:10126000742B040845646974204279204C694665F2
:101270006E67000056657273696F6E20312E300004
:101280008079040844000000530000004900000079
:1012900010B5FEF795FF10BD70B5FFF77DFF044652
:1012A00003480068B4FBF0F528460AF0E3F870BD87
:1012B0009C81020838B545680446014628460DF071
:1012C00036FA00282BD02068304A11280DD006DCD1
:1012D0000B2825D00E2833D00F2852D112E0282811
:1012E00049D0B0F5107F4CD108E09268002A16D0A2
:1012F0002146284601B0BDE8304010472146284627
:101300005268F7E7284602F091FD0090406E0468AD
:10131000684602F0B5FD002C01D02846A04738BD34
:10132000284602F083FD0090683002F0DBFC009854
:1013300003216C3002F0DEFC684602F0A1FD20E0E3
:10134000E168486809680D2902D0202913D105E019
:10135000002810DD284614F0D5F906E0002804DD49
:101360002846BDE8384014F0CDB92846BDE83840DD
:10137000022114F0DDB9E06818B90021284600F018
:10138000D8F92046BDE838400DF064BC2019002093
:101390002DE9FF410AAF97E87000002703958DE81B
:1013A000D00000F003F804B0BDE8F081F0B585B0DE
:1013B0000DF1280C9CE8F0004FF0000C8DE8F010C7
:1013C00000F024F805B0F0BDF0B5044685B08069A2
:1013D000B4F90850668A0027CDE90265CDE9001707
:1013E0000490B4F90C00B4F91060C118B4F90A0003
:1013F000B4F90E50104433462A4600F007F805466B
:10140000616800F0B5F905B02846F0BDF0B585B0CB
:101410000C46DDE90D51DFF854C04C31DDE90A67B7
:10142000CDE902C12146CDE900670DF065FB04005E
:1014300018D002F0FBFC1022294604900DF0E0FACF
:10144000049830220A493430FEF72BFF084D0499E6
:101450000C3D2868486604A802F012FD286841681F
:101460002046884705B02046F0BD0000B5120008B0
:101470002C190020F0B5044680688B4989B051F8DA
:101480002050606800287DD0052804D006287AD036
:10149000122879D1AEE0E86900284FD095E80E0017
:1014A0008DE80F0004F110010FC905F075F8002652
:1014B00055F8260004F03EF9A169E8690A1A216985
:1014C00001446069304403F001F9A169E8690A1A2E
:1014D00021690144E069801B03F0F8F8E169E869DB
:1014E0000A1A616901442069304403F08FF9E16907
:1014F000E8690A1A61690144A069801B03F086F952
:10150000761C022ED4DBA86804F014F9E069E969BE
:101510006669431A206942183144801C521E03F048
:10152000C5F9E169E869A2690B1A61690144101AF9
:10153000401C921E03F0BAF9EE6913E05FF000065A
:1015400055F8260004F0F6F8E069831BA069821BB9
:10155000606981192069304403F01AF9761C022E63
:10156000EEDB0226D5E90301CDE900016169E069FE
:1015700008444310A069891C821B2069304403F091
:1015800071F802E089E012E08AE0D5E90501CDE9D1
:101590000001E36960690121184401EB6001A06961
:1015A0009B1E821B2069304403F05CF878E02068C1
:1015B00002F03CFC049020680EF0AEFD40B1A06843
:1015C00008B1002008E00498006F28B1012003E072
:1015D0000498406F00B10220049901EB8000C56EB1
:1015E00004A802F04DFC00231A462846216802F0A8
:1015F00029FE55E0206802F019FC0490866EEEB3D7
:10160000B0F95C70A168D1B3032942D05FF000014A
:1016100000EB8101406D0C6C04F090F8204604F062
:1016200089F805A803F0E2F9BDF81410A88B01446D
:10163000ADF81410BDF81810081AADF81800BDF870
:101640001600801CADF81600BDF81A00801EADF81B
:101650001A000498B0F96020B0F95E1005A803F0F4
:10166000F7FE04A802F00CFC022004F0C1F830469A
:1016700002F0DCFB3A4605A9079001E00BE006E02A
:1016800002F094FE0DF11C0002F0FAFB08E00121CB
:10169000BEE70221BCE704A8F6E720680EF0D8F9FF
:1016A00009B00020F0BD0000DCC1040870B516468A
:1016B0000C46054619463046049A02F08FFD024654
:1016C00021462846BDE8704000F07AB8F8B51546C6
:1016D0000C4606000DD002F0A9FB0090032C02D2AC
:1016E00000EB84004563684602F0CAFB30460DF00B
:1016F00018FFF8BD024901480860704774AC04083F
:101700002019002000294FF0100101D00DF09FB8E2
:101710000CF0F1BF38B50D46040009D002F086FB8D
:1017200000904565684602F0ABFB20460DF0F9FEDF
:1017300038BD4FF480720029114601D00DF087B8F2
:101740000CF0D9BF08B50023009300F001F808BDE4
:1017500070B516460C46054619463046049A02F006
:1017600059FD024621462846BDE8704000F028B8E1
:101770002DE9FF410E4605004FF001041CD002F098
:1017800055FB0190876E01A8009702F079FB314666
:10179000684605F067FA78B100980024B84208D08E
:1017A000284602F043FB01900099816601A802F0EF
:1017B00067FB28460DF0B5FE04B02046BDE8F08179
:1017C000F8B515460C46060013D002F02FFB00902A
:1017D000032C0BD200EB84006C3002F083FA0098EB
:1017E00000EB8400C56630460DF09BFE684602F0B3
:1017F00047FBF8BD00BFFEE710B500F021F800F090
:1018000019F810BD10B5002400BF00BFFEF7DCFCC6
:10181000044600BF00BF1021054808F04FF900BF83
:1018200000BF2046FEF7D4FC00BF00BF10BD000083
:101830000837002010B5FFF7E5FF10BD00BFFEE739
:1018400010B500200249086000F00AF810BD000041
:10185000580100200149086070470000580100202D
:1018600010B5FFF799FC04460848006840F0807006
:10187000064908600020064948600846006840F0B4
:10188000010008602046FFF7E5FF10BDFCED00E019
:10189000001000E00149486870470000001000E0B7
:1018A00010B500F001F810BD0220014988607047B2
:1018B00000B0024029B1064A12680243044B1A6084
:1018C00004E0034A12688243014B1A60704700002B
:1018D00000B002407047000000B587B00121084603
:1018E0000BF01AFD012110200BF056FD07220A21F2
:1018F0001F4801F0DFFB072209211D4801F0DAFB38
:1019000000208DF81A0001208DF81B0002208DF8B0
:1019100018000002059002208DF8190005A914484E
:1019200001F080FB02208DF818004002059005A907
:101930000F4801F077FB4FF4E13001900020ADF843
:101940000800ADF80A00ADF80C00ADF810000C204E
:10195000ADF80E0001A907480CF058FE012105481A
:101960000CF0EBFD402103480CF0DEFD07B000BD9C
:10197000000002400010014001B502E00098401E46
:10198000009000980028F9D108BD01B502E0009848
:10199000401E009000980028F9D108BD0EB512E055
:1019A00018F024F8084908600846016807480068EC
:1019B0000CF0BEF902A8002102230A46CDE900106E
:1019C000084609F02FFCEBE734000020000000205F
:1019D00010B5024600200023102A03D14FF0204406
:1019E000636E0FE0B2F5807F02D10A4C236809E0F4
:1019F000B2F5805F03D1074C2034236802E0054C28
:101A0000D434236803EA01048C4201D0002000E0B2
:101A1000012010BD840000A00021D0E900231A435A
:101A200083685B1E42EA4312C36842EA4321014ACB
:101A300011607047500100A070B500220021002302
:101A400000240568AD00A5F1C045D5F840216FF32D
:101A50000E02D0E901563543C66835430669354361
:101A60004669354386693543C6693543066A354359
:101A7000466A35432A43056835B90568AD00A5F1C6
:101A8000C045C5F8402111E03B4D2B686FF30E03B4
:101A9000D0E907563543466A35432B43364D2B6014
:101AA0000568AD00A5F1C045C5F84021056875BBC6
:101AB000314D0835066855F8261001F07041856AE9
:101AC0002D686D1E866A7668761E45EA0616856A5A
:101AD000AD686D1E46EA0526856AED686D1E46EA0C
:101AE0000536856A2D8A6D1E46EA0546856AAD8AE9
:101AF0006D1E46EA0556856A2D7E6D1E46EA056511
:101B000029431D4D0835066845F8261032E0FFE7E9
:101B1000194D0835066855F8261001F07041856AA0
:101B20002D686D1E866A7668761E45EA0616856AF9
:101B3000AD686D1E46EA0526856A2D8A6D1E46EA49
:101B4000054529430C4D08352C6804F07044856A1E
:101B5000ED686D1E2E03856AAD8A6D1E46EA055539
:101B60002C434FF02045C5F84841034D0835066821
:101B700045F8261070BD0000400100A00449096826
:101B800041EA40014FF02042C2F854117047000072
:101B9000540100A02DE9F04389B0984615460F4640
:101BA00006004FF0000428D000F0C0FB0446304689
:101BB00000F08CFB814603A9304600F001FDF807D8
:101BC00006D0BDF91C008221001B401B401C08E010
:101BD000B807BDF91800284402D540F2022100E000
:101BE00002210096CDE9018123461A464946FFF7B6
:101BF000CFFB04460021FFF785FD09B02046BDE874
:101C0000F083000010B50523FFF7C4FF0446054A22
:101C10000021FFF797FD044920460DF017FE2046EE
:101C200010BD0000B1190108398701082DE9F047FE
:101C3000044640688EB00027804602F0F7F8009016
:101C4000B0F87CA0D0F86890D0F88060D0F88850C8
:101C5000C06D00B10768684602F012F905E06968D6
:101C600020468847002843D12D68002DF7D12068F1
:101C7000172853D00CDC0F283DD004DC0B2877D07C
:101C80000D2825D18BE0112810D0142820D13BE05D
:101C9000262846D004DC1E2851D0202818D18AE0FE
:101CA0002A2816D0B0F5107F12D128E04046E5680A
:101CB00002F0BCF80290697A39B9297A012904D175
:101CC00030F87C1F41F48071018002A802F0D8F83E
:101CD00075E0404602F0AAF80090E16811B1C0F842
:101CE000841002E0D0F88400E060684602F0C8F892
:101CF0000EB0BDE8F087D7B34046B8475FE0214655
:101D0000404613F0C9FDF3E705A9404600F058FC32
:101D1000E0680699016007994160E9E7C4F80C9012
:101D2000E6E7E0680228E3D1CDF83080E0680D9066
:101D300027200A900AA9A0680EF0F4FBD8E7E06813
:101D4000012804D00021404600F063FBD0E7304674
:101D50000DF03CFC68B130460DF004FE30460DF04D
:101D600017FB98B1012130460CF071FD0EE026E022
:101D70002FE048460DF044FE0646404602F056F875
:101D80000090C0F88060684602F07AF80121404671
:101D900000F03FFB002EABD10020E060A8E75FEA37
:101DA0000A700CD4E068C06848B1007A38B1404687
:101DB0000DF0D8FD03E02146404613F0D6FC214645
:101DC00040460CF0B4FC002892D020460CF042FFB4
:101DD0008EE7404602F02AF80090703001F082FF52
:101DE000684673E72DE9F04387B00DF13808814666
:101DF00098E8F1104FF00008CDF818808DE8F11048
:101E0000484600F023F807B0BDE8F083F0B587B08E
:101E1000B0F908400DF10C0C0C9E876945688CE800
:101E2000F000448A0025CDE900150294B0F90C10A9
:101E3000B0F91050B0F90E40B0F90A00194410443E
:101E40002B46224600F002F807B0F0BD2DE9F0471E
:101E50008AB00DF14C0CDDE917849CE86006129FF6
:101E600045F48055DFF8BCC06034CDE902C4CDE94B
:101E700000750CF041FE04004FD001F0D7FF302276
:101E8000494604900CF0BCFD0498282226493430C1
:101E9000FEF707FA0498244FC0F86480A0F87C602D
:101EA0000026C0F88060C666083FC0F88860796880
:101EB000C16504A801F0E4FF05A9204600F080FBFD
:101EC0001A4841F2827103960094CDE90110BDF9E0
:101ED0001E00BDF91A10BDF91C20431ABDF91800E7
:101EE0005B1C121A521C0CF007FE0646786841680B
:101EF00020468847204601F099FF0490866604A892
:101F000001F0BEFF42F20400054202D120460CF06F
:101F100066FF5146204600F0AAFA0AB02046BDE806
:101F2000F08700002D1C000864190020C928000853
:101F30002DE9F041044694B0006800F0B7F908B10B
:101F4000D94D01E0D84D2C35606815281ED00CDC29
:101F50000B281FD004DC00287ED005287DD12FE17E
:101F60000E287BD01228F9D141E1162806D0172877
:101F700008D0182808D01C28F0D109E0E86914B06E
:101F8000BDE8F081286AFAE7686AF8E7A86AF6E728
:101F90006869F4E720680B901C200C90206801F021
:101FA00045FF0390016D0BA88847064603A801F082
:101FB00067FF022E0FDB95E807008DE80700D4E9E4
:101FC00004023346A16904F0B5FA20698719A069B3
:101FD000A0EB06082CE0286803F0ACFB2169E86957
:101FE0000A18521E606902F071FBA269E869111AB1
:101FF000491C606902F06AFBD4E904077F1C39467A
:1020000002F0A6FB3946A06902F0A2FB686803F063
:1020100091FB20693946401C02F09AFBA0693946C1
:10202000401E02F095FBA0692769A0F10208BF1CC1
:10203000286803F07FFB42463946606902F046FBA0
:10204000686803F077FB606942463946401C02F03D
:102050003DFB686A022802E015E1B0E000E10BDD1B
:10206000A86803F067FB61696A6A881C8B180146DF
:10207000424638465B1E27E0296AB14226DD606988
:10208000022E074600F1020801DB374401E007F1A8
:102090000207206901DB304401E000F102002269FF
:1020A0003B460A444146A2F1010202F0FFFB022E28
:1020B00002DBA069821B01E0A269921EA069E969A6
:1020C0003B46401A4146401C02F0F0FB022E02DB68
:1020D0006069064401E06669B61CE76928687F1EEE
:1020E00003F028FB3A463146206902F08FFB3A465E
:1020F0003146A06902F08AFBE7696868BF1E03F0F9
:1021000019FB20693A463146401C02F07FFBA0696A
:102110003A463146401E02F079FBE869022802DCAB
:10212000286A022823DDA86A022802DDE1690F1A65
:1021300001E0E769BF1EA86803F0FCFAE96902291B
:1021400009DD20693B46421800F1020C3146604629
:10215000521E02F0ABFB286A022808DDA269E8697A
:102160003B46101A3146401C921E02F09FFB286825
:1021700003F0E0FAD4E90620216902F0A7FA6868C2
:1021800003F0D8FAD4E906202169401E491C521EEA
:1021900002F09CFAA86A022811DDA1692669E469A7
:1021A000A1F10208271AA41EB61C7F1CA86803F020
:1021B000C1FA234642463946304602F077FB71E0C9
:1021C000208A00B2ADF81400A18A09B2ADF8161049
:1021D000228B12B2ADF81820A38B1BB2ADF81A30C7
:1021E0002C69ED68CDE9005402F03CFA5AE0208AEF
:1021F000298B0844ADF81400A08AADF81600208B96
:10220000298B401AADF81800A08BADF81A00206891
:1022100001F00CFE0390006FF0B1022003F0E8FA29
:10222000039890F87C10C1F3C00100EB8100006CB2
:1022300003F080FA0398406B03F080FA0398006F74
:1022400001F0F4FD03990990B1F95A2005A902F0B3
:10225000ADF809A801F014FE03A801F011FE21E079
:10226000208AADF81400A08AADF81600208BADF8D6
:102270001800A08BADF81A00A86803F05BFA05A857
:1022800002F038FB0EE0206801F0D0FD039030F83A
:102290005A1F41F00C01018003A801F0F1FD2068F4
:1022A0000DF0D6FB00206AE6201B002038B5002484
:1022B00050B101F0BBFD009090F87C00000700D504
:1022C0000124684601F0DCFD204638BD38B5050024
:1022D0004FF000040CD001F0A9FD0090C06D00216A
:1022E00080680268284690470446684601F0C8FDA9
:1022F000204638BDF8B50E4605004FF000040CD05E
:1023000001F094FD0090C06D314680680268284657
:1023100090470446684601F0B3FD2046F8BD000032
:1023200001480068704700006419002030B587B08C
:1023300005004FF000040ED001A900F041F9284635
:1023400001F074FD0090B0F95440684601F098FD2A
:102350000CB9BDF9044007B0204630BD30B5044685
:102360008BB0006801F062FD009090F87C10246A48
:10237000006FC1F3C00508B101F058FD0690E06898
:10238000029020690390A088401EADF81000E089FB
:10239000ADF812002089401CADF81400608AADF839
:1023A0001600BDF80800401CADF80800BDF80A0092
:1023B000401CADF80A00BDF80C00401EADF80C0042
:1023C0000098406B03F0BAF9009808AA02A9B0F986
:1023D0005A30069803F0FAFB009800EB8500806BFA
:1023E00006F050FC009800EB8500006C06F082FCC3
:1023F00008AB02AA04A906980CF058FA684601F046
:102400003FFD069810B106A801F03AFD0BB0002080
:1024100030BD002801D014F04DB8704738B50C46D7
:1024200000280CD001F002FD0090816CA14203D085
:102430008464806E0DF075F8684601F021FD38BDAA
:10244000024901480860704780AC04086019002008
:1024500038B50D46040009D001F0E8FC009005668F
:10246000684601F00DFD20460DF05BF838BD7CB5E7
:102470000D46040019D001F0D9FC0090006F0190C6
:10248000684601F0FDFC294601A804F0EBFB00289A
:102490000BD0204601F0CAFC009001990167684604
:1024A00001F0EEFC20460DF03CF87CBD2DE9FC4728
:1024B0000D465FEA00094FF000042DD001F0B6FC94
:1024C0000190B0F95440A54223D000F0E0F88046D6
:1024D00001980121A0F85450C06D856848462A68CB
:1024E000904707462A6803214846904706462A68CF
:1024F0000021484690470546484600F0AEF933466D
:102500003A4641464846009500F037F948460DF0F6
:1025100008F801A801F0B4FC2046BDE8FC872DE9CD
:10252000FC470C465FEA000948D001F07FFC0090B0
:10253000428E114614B141F0200501E021F0200542
:10254000AA4238D04586484600F087F9009EF469D3
:102550001FE0204601F06AFC0190076AB0F9020012
:10256000B6F90210A0EB010801A801F089FCB6F948
:10257000561041450CD1B06EA04209D096F83200F9
:102580008006204602D50DF0E0FA01E00CF010FFC5
:102590003C46002CDDD1009890F87C00400607D521
:1025A000A806484602D50DF0D0FA01E00CF000FF75
:1025B00048460CF0B6FF684601F062FCBDE8FC87B7
:1025C0002DE9F34F85B000270C46B846059801F079
:1025D0002DFC0090C06D0121856805982A68904700
:1025E00082462A6803210598904704902A680221B0
:1025F0000598904703902A68002105989047064661
:1026000000980DF007FC834600980DF00AFC814607
:10261000009890F83210890601D5B0F9588000F082
:1026200036F805460098C06E10B10CF0D7FC07468E
:1026300025806780A4F804A0049AABEB020006EBA7
:102640000802401E2A4420813A44E280039BA9EB01
:102650000302521E6281A4F80CA020827019E68148
:10266000401E6082684601F00BFCB4F90C0001903A
:10267000B4F91000029002AA01A9059800F03AF8F6
:102680000198A0810298208207B0BDE8F08F10B5B4
:102690000146002091F83220920607D5B1F9540086
:1026A000002803D1486B02F045FA801C10BD70B5BC
:1026B0008AB00C46054601F0B9FB0990C06D8668EA
:1026C00009A801F0DDFB009534B1012C06D0022CE5
:1026D0000BD0032C04D10AE0182000E01620019052
:1026E0007168684688470AB070BD1520F7E7172063
:1026F000F5E700002DE9FC4117468846044601F045
:1027000095FB0090C16D056868468E6801F0B8FBC6
:102710003268002120469047064620460CF0E8FB30
:1027200027E000BF01F082FB0190B0F900102AB24F
:10273000B0F90430891A9A1AB0F90230A3EB254394
:10274000B34210D190F82800000605D538688842B9
:1027500009DB491E396006E0D8F80000904202DC2F
:10276000521CC8F8002001A801F08AFB20460CF09A
:10277000F3FB0400D6D1BDE8FC812DE9FF4F83B007
:102780000E460746DDF8409001F050FB0190C16D08
:102790008D68FFF77CFF044601A801F071FB2A68F1
:1027A00001213846904783462A68032138469047DE
:1027B00082462A680021384690470546B44207D130
:1027C00005998B4504D106998A4501D14D4541D0E3
:1027D000A41B0026B04638460CF08AFB38E001F016
:1027E00025FB0090806A010601D5800502E0810585
:1027F00028D50006002825DB24B12246114638469C
:102800000CF074FF009890F8280000060AD506988E
:10281000A5EB0902A0EB0A0004FB16013846761C62
:102820000CF02FFF0098008D80050BD50599A5EBC6
:102830000902ABEB010004FB080108F1010838466E
:102840000CF01FFF684601F01BFB38460CF084FBC0
:102850000700C4D107B0BDE8F08F70B586B006465A
:1028600001F0E4FA0590D0E91A4505A801F008FB4B
:1028700054EA050026D069463046FFF7A1FEACB108
:10288000BDF90620BDF9041020460CF0CFFEBDF9BD
:102890000A00BDF90610421ABDF90800BDF904107E
:1028A000521C411A2046491C0DF0F2F8002D09D0A7
:1028B000BDF90600BDF90210421ABDF90410284600
:1028C0000CF0B4FE06B070BD2DE9F043044640683C
:1028D00089B005460CF047FB814601F0A7FA02904B
:1028E000D0F84880D0F88070466E02A801F0C8FA8F
:1028F0002068172853D008DC0E283AD00F2811D0B2
:1029000014284CD015283DD149E01E281ED01F2880
:102910002AD0222840D0312834D10020E06009B0EC
:10292000BDE8F0836FF070414046884503D006F063
:10293000A9F901F023FB002EF1D0D4E9021220689E
:10294000CDE90405CDE9061204A81FE0E0680028DF
:10295000E5D02FB1AF4203D038460DF003F8DEE7E3
:1029600028460DF04DF8DAE7214648460BF0DFFE29
:10297000D5E7E0684168002904DD00680928EFD048
:102980000A2805D05EB12046C4F80490B047C6E7D7
:1029900028460DF03DF8C2E7C4F80C80BFE720469A
:1029A0000CF058F9BBE700002DE9F0430446C56878
:1029B00087B090468946002002F0BEFE064625B14B
:1029C000287910B146F0020001E026F0020002F082
:1029D000B3FE2069012558B1D4E902128DE8260022
:1029E000039563882288046841464846A0471EE054
:1029F000124F134B214638681B68427CE0689847A9
:102A000030B9E088012801D0002001E03868806BEF
:102A1000A288E388A1680095CDE90410CDE90232CF
:102A20000195638822884146484605F007FB07B0B8
:102A30003046BDE8F04302F07FBE00008018002061
:102A4000781800201CB50024019401AC009400F01B
:102A5000E7F81CBD2DE9FF4F83B0814606988A46F2
:102A6000A0EB0A08109E00200090A2EB0904356834
:102A7000934654EA080018D02046FEF7EDFA0746C0
:102A80004046FEF7E9FA87420BDA20464446804684
:102A90004846D14682465846DDF818B006900120D7
:102AA0000090002C07DD204606E007B04846BDE850
:102AB000F04F00F03BB96042A0420AD04846D946E8
:102AC0006442C8F1000883464FF0FF37DDF818A0D4
:102AD00000E001275148B8F1000F11D004EBD47188
:102AE0004FEA610B01DACBF1000B4C480068807EA5
:102AF00088B3002F02DA30682044306000257BE084
:102B000000990029016821D0897E11B100278046F3
:102B100015E007B05A4649465046BDE8F04F05F06B
:102B2000EFBB28466D1C13F0E1FD38B9D8F8000062
:102B300009EB0701406E4268504690477F1CA74250
:102B4000EFDD6D1E356007B0BDE8F08F8A7E1AB1EB
:102B50000027804617E019E0486E5A465146036840
:102B600007B04846BDE8F04F184728466D1C13F0E3
:102B7000BDFD38B9D8F8001009EB0700496E4A6866
:102B8000514690477F1CA742EFDDDAE700250FE0B2
:102B900008FB05B090FBF4F101EB0A00009951B17C
:102BA0001E4A09EB05011268526E526890476D1C6F
:102BB000A542EDDDC7E7194909EB05030968496E30
:102BC0004A6801461846F1E708FB05B090FBF4F1AE
:102BD00001EB0A00019030683844306013F086FD44
:102BE00048B9009890B10D4809EB05010068406EA6
:102BF0004268019890476D1CA542E5DD3068002FC2
:102C000001DA20443060C01B30609CE7034909EBC7
:102C100005000968496E4A680199EBE780180020B1
:102C20002DE9FF470F4640491646804609680C9833
:102C30001D460A7E012A1CD0A8EB0600791B50EA2B
:102C400001031CD0A2F1010915F034FD00F58060EC
:102C5000824604F0F6F800FB09F4504604F0F6F85A
:102C600000FB09F1002C0CDAC4F500708012404220
:102C70000AE00090324639464046FFF7EBFEBDE8D9
:102C8000FF8704F50074A012002904DAC1F5007171
:102C900089124C4202E001F500718C12002804DD1B
:102CA000411C01EBD171491003E000EBD0714910D8
:102CB000401E00EBD0704210002C04DD601C00EBC5
:102CC000D070401003E004EBD4704010641E04EB9D
:102CD000D47308EB0104ADF800403C18ADF8024095
:102CE000A8EB02045B10B21AADF80440ADF808205E
:102CF0003144FC1AEA1AADF80C102844ADF80A2049
:102D0000ADF80E000023ADF806401A4604216846CF
:102D100000F07AF83946404610F0E4F9294630468A
:102D200010F0E0F9ABE7000080180020064A1368B5
:102D30001A7E012A05D0521E02EBD272521000F008
:102D400005B85A6E52681047801800202DE9F05FD0
:102D50000646884640F2C32002FB00F14FF47A7029
:102D600091FBF0F702FB02F102EBD27001EB600B7A
:102D70001446B118234A301B7F1C1268526E136828
:102D80000A4641469847012538E000BF05FB05F09B
:102D900004FB040159451CDDBC4219DD194B06EB4F
:102DA000050AA6EB05091B68AAF1010208EB04015C
:102DB0005B6E09F101001B689847124BAAF10102F2
:102DC000A8EB04011B6809F101005B6E1B689847C2
:102DD000641E0C4B3219301B1B68924608EB050130
:102DE0005B6E81461B689847064B5246A8EB05016F
:102DF0001B6848465B6E1B6898476D1CBD42C5DD6D
:102E0000BDE8F09F801800202DE9FF4F43F6FF74C6
:102E10000F46664283B09B46814600210BE000BF0F
:102E200009EB8100B0F90200A04200DA0446B0428A
:102E300000DD0646491CB942F2DB6748006840697C
:102E400000280DD0B0F906101A46A1EB0B01B142D3
:102E500000DA0E46B0F90200801AA04200DD0446F6
:102E6000B4E0DFF878A100200546CAF8000088E049
:102E7000781E854201DA6B1C00E0002309EB850C0B
:102E800009EB8302BCF90200B2F90210A04244D15E
:102E9000A14215D139F92330059A39F9251003EBF0
:102EA000020C4D4A05981268084404EB0B01526E5F
:102EB0006045136801DA62462AE00246604627E070
:102EC0002846A4464FF000087A1E0BE008B1401EC9
:102ED00000E0781E09EB8003B3F90230634504D1AA
:102EE00008F101089045F1DB2346A34248D01A1BA4
:102EF00039F92500A1EB040C059B92EA0C0F09D4CB
:102F0000354A184404EB0B011268526E13680246EE
:102F1000984735E00DF0F4FB32E0A14230D001DB00
:102F2000A04203DDA0422BDBA14229DCE04688421F
:102F30000ADC0346A04223DC0846A14220DBB8F9A4
:102F400000C0B2F9001008E00B46A14218DCA04214
:102F500016DBB2F900C0B8F90010E21AA1EB0C01BF
:102F600051430029A0EB030202DD01EB620102E004
:102F7000A1EB6201491CC01A91FBF0F06044C9E763
:102F80006D1CBD42FFF674AF0598009004EB0B007A
:102F9000019000208046054613E01149B8F1000F6A
:102FA00031F915A009D0009901EB0A0208440A4939
:102FB0000968496E0B680199984788F001085046E6
:102FC0006D1C064909688D42E7DB641CB4427FF73B
:102FD00048AF07B0BDE8F08F80180020441C0020E7
:102FE0001CF0002010B5002002F0A2FB6FF07F4023
:102FF00002F0A0FB012002F0E9FB002002F0EEFB52
:10300000002002F0F5FB002002F096FB0448006867
:1030100002F094FBBDE81040002002F0B3BB0000BA
:103020007C180020F0B50A4600210023002400BFD0
:103030003DE0012505FA01F3156805EA03049C4209
:1030400034D105684F000326BE40B54305601579AD
:103050004E00B5400668354305601579012D02D054
:103060001579022D16D185684F000326BE40B54361
:10307000856055794E00B540866835438560456862
:1030800001268E40B5434560456896798E40B6B2BC
:1030900035434560C5684F000326BE40B543C56053
:1030A000D5794E00B540C6683543C560491C102926
:1030B000BFD3F0BDF0B5002300244D07ED0E02FA9A
:1030C00005F3CE1000F1200555F826504E07F70EF7
:1030D0000F26BE40B543CF1000F1200646F827501A
:1030E000CE1000F1200555F8265045EA0304CE1015
:1030F00000F1200545F82640F0BD02460020136986
:103100000B400BB1012000E0002070474183704765
:103110000183704700B587B0012102200AF0FCF856
:10312000012188040AF018F907220B212848FFF72B
:10313000C1FF07220A212648FFF7BCFF00208DF8B7
:103140001A0001208DF81B0002208DF818004002A3
:10315000059002208DF8190005A91D48FFF762FFB0
:103160004FF40060059005A91948FFF75BFF4FF485
:10317000E13001900020ADF80800ADF80A00ADF88C
:103180000C00ADF810000C20ADF80E0001A911489C
:103190000BF03CFA01210F480BF0CFF940210D480C
:1031A0000BF0C2F927208DF8000002208DF80100F5
:1031B00001208DF802008DF80300684606F01AFD24
:1031C000012240F2255103480BF0FAF907B000BD87
:1031D00000040240004800400FB470B586B00646B7
:1031E0000CA8019073E00B9800785C281CD10B9818
:1031F000401C0B9000786E2809D072280FD10D2149
:1032000030460BF072FA0B98401C0B900BE00A2131
:1032100030460BF06AFA0B98401C0B9003E00B98B9
:10322000401C0B9000BF4BE00B980078252840D144
:103230000B98401C0B900078642818D0732833D169
:10324000019810C801900BE0217830460BF04DFA40
:1032500000BF802130460BF07CF90028F9D0641CB7
:1032600020780028F0D10B98401C0B9020E00198AA
:1032700020C801900A2202A9284616F087FC02AC59
:103280000BE0217830460BF030FA00BF8021304649
:103290000BF05FF90028F9D0641C20780028F0D1E9
:1032A0000B98401C0B9003E00B98401C0B9000BF48
:1032B00006E00B9810F8011B0B9030460BF015FA46
:1032C00000BF802130460BF044F90028F9D00B985C
:1032D0000078002887D106B070BC5DF814FB0000B0
:1032E0000EB500BF00BF72B603F0DCFD62B6154834
:1032F000B0F90000401C20B11348B0F90000401C98
:1033000060B94FF0FF300090019000208DF8080068
:103310008DF80900684602F0D9F80EBD01208DF83D
:1033200008000848B0F9000000900748B0F9000014
:10333000019000208DF80900684602F0C7F800BF30
:10334000EBE7000036010020380100202DE9FC41A8
:1033500000200090019000244FF448754FF4F0765F
:10336000002780208DF8000048208DF801000622FB
:103370006946BA2000F04EF80446002C02DA00201C
:10338000BDE8FC819DF802009DF8031000EB0120D0
:1033900085B29DF804009DF8051000EB012086B26F
:1033A00080208DF800004D208DF801000322694631
:1033B000BA2000F02FF80446002C01DA0020DFE7E5
:1033C0009DF8020000F003073B463246294602A062
:1033D00014F01AFA0120D3E73C3C2D4754502D49F4
:1033E0004E464F2D3E3E20585F4D4158203D2025F2
:1033F000642C20595F4D4158203D2025642C2054D9
:10340000524947474552203D203078253032780ACE
:10341000000000002DE9F04186B005460C46164636
:103420004FF0FF374FF0000800BF00BF0020ADF89D
:1034300002008DF800500220ADF804000294012132
:10344000ADF80E108DF80C50B01E81B2ADF8101012
:10345000A01C059009E00221684604F0AEFA074678
:10346000022F00D104E008F10108B8F1050FF2DBEA
:1034700000BFB8F1050F08DB6078237840EA03212C
:10348000B21E3B46034814F0BFF9384606B0BDE80B
:10349000F0810000FCCB040838B50E4800680090AD
:1034A00000256C1E00BF00BF0DE003226946BA2054
:1034B000FFF7B0FF44B2002C01DD204638BD29469D
:1034C00005A014F0A1F92846691CCDB20528ECDB53
:1034D0002046F3E7688002083C3C2D4754502D45B8
:1034E00052524F522D3E3E204754502069326320A5
:1034F00074657374206661696C65642074696D65B8
:103500002025642E0A0000002DE9FE4380460C466B
:1035100015464FF0FF36002700BF00BF0020ADF872
:1035200002008DF80080A8B2ADF80400029408E013
:103530000121684604F041FA0646012E00D102E05E
:103540007F1C052FF4DB00BF052F08DB6078237894
:1035500040EA0321AA1E3346024814F055F93046CA
:10356000BDE8FE834CCC04082DE9F043AFB04FF02A
:10357000FF3600250027A846BC2228496846FCF7EC
:1035800090FE4FF0BA09B82400BF00BF04F00DFA56
:10359000FFF782FF0646002E02DA21A014F034F96C
:1035A00000F058F8F0212948FCF7A3FE4A46694686
:1035B0002648FCF776FE0027022505E02348801EFA
:1035C000405D3844C7B26D1CA01C8542F6DBF84351
:1035D000401CC1B21D4A921EA01C11540121E01CC6
:1035E00011544FF000080BE0221D1849891EBA2023
:1035F000FFF78AFF0646002E00DD04E008F101080F
:10360000B8F1050FF0DB00BF1148FEF7BEF9FFF778
:103610009DFE00202FB0BDE8F083000080800208EE
:103620003C3C2D4754502D4552524F522D3E3E208A
:1036300049324320636F6D6D756E69636174696FA4
:103640006E204552524F52210A00000046000020D1
:10365000FFFF0F0010B586B04FF0FF341D4903C9BE
:10366000CDE9040100BF00BF082204A9BA20FFF77A
:10367000D1FE0446002C05DA17A014F0C5F8204648
:1036800006B010BD9DF8150078B99DF816009DF89C
:103690001710CDE900109DF814309DF813209DF807
:1036A000121018A014F0B0F811E09DF816009DF863
:1036B00017109DF81520CDE9002102909DF81430D7
:1036C0009DF813209DF8121019A014F09DF82046C3
:1036D000D6E70000508002083C3C2D4754502D4551
:1036E00052524F522D3E3E20475450207265616425
:1036F0002076657273696F6E206661696C65640A15
:10370000000000003C3C2D4754502D494E464F2DA3
:103710003E3E2049432056657273696F6E3A2025FC
:1037200063256325635F25303278253032780A00BF
:103730003C3C2D4754502D494E464F2D3E3E20498E
:10374000432056657273696F6E3A202563256325A1
:103750006325635F25303278253032780A00000017
:1037600010B500BF00BF00BF00BF03B2024C2380F2
:103770000BB2024C238010BD36010020380100201E
:103780004FF0FF30034908800349088000BF00BFA5
:10379000704700003601002038010020014AC2E9CC
:1037A000000170472C180020014AC2E9000170474F
:1037B00034180020014AC2E900017047FC180020BB
:1037C000014AC2E9000170473C180020014AC2E9E1
:1037D00000017047041900202DE9F04FDFF828B1EF
:1037E00091B04FF0FF35DBF80030B3F922100691AD
:1037F000DE69B3F92490F469A189814206D8E2898F
:10380000824203D3471AD4F8008012E0D4E9018140
:1038100000296FD00A8882426CD84D88854269D3CE
:10382000801A82B2486800EB8200B0F90070B0F9EB
:103830000250781C5ED0307EA17C10FB01FA217C06
:10384000CDE90701B3F92A60304605F07BFAC0B232
:103850000E90DBF8000007FB0A81A37C826B012736
:10386000CDE90412CDE90273C069089AC17E807E59
:10387000CDE90001DDE90603494604F0DFFB681CE1
:1038800018D046F0020005F05DFADBF80000A37CDA
:1038900005FB0A81826BCDE90273CDE90412C06990
:1038A000089AC17E807ECDE90001DDE90603494624
:1038B00004F0C4FBDBF800005D46C069417E007E79
:1038C000814214D9022E12D086F0040005F03AFA93
:1038D0002868C069027EC37E12FB0391437E857E09
:1038E000089A06984B4412FB050204F033FD0E982B
:1038F00005F028FADBF80000627C418C1144418419
:1039000011B0BDE8F08F0000801800200448006866
:10391000C069C06909B1027C0A60407C7047000040
:1039200080180020022008807047C06982898A427E
:1039300002D8C2898A4210D2806880B102888A4245
:103940000DD843888B420AD3406800EB8100A0EB7E
:103950008200B0F90000002801DB01207047002040
:1039600070470000F0B5254C054687B02068294611
:10397000B0F92A60C069C06900F04BF900283AD05C
:1039800041680088281A01EBC0053046AF7805F081
:10399000D9F906461A48D0F800C0BCF1000F15D07E
:1039A00000216868CDE904010422012001A90090EA
:1039B00081E885002068DCF800702A78C1690B7EF8
:1039C000B0F92410B0F92200B8470CE06868CDE9DE
:1039D000007020682A78C1690B7EB0F92410B0F914
:1039E000220000F021F9304605F0ACF920686A7831
:1039F000418C1144418407B0F0BD000080180020C4
:103A0000BC18002070B505460B480C4629460068D6
:103A1000C069C06900F0FDF800280BD0416800883B
:103A20002A1A012000EBC200002C085C02D011F819
:103A30003210216070BD0000801800201120088025
:103A4000704710B5C06900F0E4F8002800D00120EC
:103A500010BD00002DE9F043304C034687B02068CC
:103A60001946B0F92A60C069C06900F0D2F8002890
:103A700050D041680088181A01EBC0053046AF7875
:103A800005F060F9814620686A680123816BCDE901
:103A90000237CDE90421C169CB7E8A7ECDE90023BE
:103AA0000B7EB0F924102A78B0F9220004F0C6FA8F
:103AB0002068C069417E027E91421FD9C07E11FB01
:103AC00000F812FB00F7022E18D000F094FF064613
:103AD00000F074FF01F02EFE21682A78CB69B1F95D
:103AE0002200DB7E12FB0302B1F9241001EB080374
:103AF000394404F02FFC304601F01CFE484605F026
:103B000021F920686A78C369B0F922109B7E12FB04
:103B10000311418407B0BDE8F08300008018002045
:103B20002DE9F3411C4E0F46002530682C46C06934
:103B3000417EC07E11FB00F81DE0684601F0CCFE1E
:103B4000054630682946C069C06900F029F890B17F
:103B500041680088281A00EB400001EB800090F9D2
:103B60000210007908443168C969897E10FB01F0B0
:103B7000002800DD04447F1EDFD51DB1284602F079
:103B8000FFFE0444414620460CF0BEFE03490120DE
:103B90000870BDE8FC810000801800203C1A00205D
:103BA00006E002888A4202D842888A4202D28068AD
:103BB0000028F6D17047000030B50F4C05460B4683
:103BC00020682946C069C06900F023F8002812D097
:103BD0004168008824682A1A0120E46900EBC200C9
:103BE000085CA47E10FB04F0002B04D011F8321006
:103BF00011FB04F1196030BD8018002001200880FD
:103C0000704700B5C06900F004F8002800D001201A
:103C100000BD06E002888A4202D842888A4202D267
:103C200080680028F6D170477CB5084EDDE906545F
:103C30003668367CCDE90054B60702D40FF0BCF8E4
:103C40007CBD034C2468A0477CBD00008018002088
:103C5000FC170020002801D00CF0B4BD704738B527
:103C60000546FFF7F7FF040009D000F0DFF82A4609
:103C70000021009003F067F8684600F001F9204643
:103C800038BD0000024A106021F003005060704708
:103C900060EE002010B5002814D004460A48406B9E
:103CA00010F8341000290DD002290BD2042101EBA9
:103CB000C401415848680CF03FFD2046BDE8104063
:103CC00012F0E6BA10BD0000A0ED0020002805D0DB
:103CD000034AD16B016001B14860D06370470000B6
:103CE000A0ED002010B504460068FFF7D3FF0020C8
:103CF000206010BD70B50D460646002405E000BFEB
:103D000006EB8400FFF7EEFF641CAC42F8DB70BDED
:103D10002DE9F041044611F067F82848E41C24F02E
:103D20000305016C2D1DA94200D90D46C46B13E09B
:103D300054F8042CAA420ED184B1216809B16268FA
:103D40004A60616809B122680A60C26BA24231D13F
:103D50002168C1632EE02468002CE9D18046816B84
:103D6000C0680F1857F8040C3E1A306838B10020AC
:103D700012F010FB57F8040C3E1A3068D0B9706886
:103D8000A84217DB3044441B3046241D12F0BAFA17
:103D9000D8F80C10491BC8F80C10D8F81410294496
:103DA000C8F814107068401B02D031460CF0C4FCF7
:103DB00044F8045C2046BDE8F0810000A0ED00203E
:103DC00010B5002411F010F80C490F2001EBC002CF
:103DD000526C1AB101EBC000406C08E0401EF5D5F2
:103DE00008E04168A14200D90C46806810B18068A3
:103DF0000028F6D1A4F10C0010BD0000A0ED0020B9
:103E0000002138B10449042202EBC000496B085874
:103E100041680C3908467047A0ED002002488169CE
:103E2000491C816170470000A0ED00200549CA6966
:103E3000521CCA61496B01EBC0010A78521C0A701E
:103E400000F036B8A0ED002010B5FFF7B9FF6422EE
:103E50000649B0F5800F04D990FBF2F0096A484397
:103E600010BD096A4143B1FBF2F010BDA0ED002086
:103E700002488169491E816170470000A0ED002061
:103E80000A4902684B6B52F8082C03EBC202137804
:103E9000022B03D3CB690BB15B1ECB611178491E9A
:103EA000117000210160084670470000A0ED00205D
:103EB000002806D00349042202EBC000496B0858D1
:103EC00008307047A0ED002050F8080C7047000043
:103ED00070B506460D461446104600F093FD0300EB
:103EE000164804EB84010AD050F82100416880682C
:103EF000711A2A1ABDE87040184601F041BC00EB67
:103F00008104A268B24201D0012200E00022E368ED
:103F1000AB4201D0012300E000231A430CD02369F7
:103F200043B150F82100816840686A1A311A184676
:103F300001F0D4FBC4E9026570BD0000DCEE002096
:103F400010B5C2B2CBB2D21A00D5524293B25B4383
:103F5000C0F30722C1F30724121B00D55242000C04
:103F600092B2A0EB114002FB023200B2002801DA4B
:103F7000404200B280B200FB002010BD10B500210D
:103F8000084600F0EDFD43F6FF725042BDE81040D8
:103F900013460146AFF300802DE9FC4107461C465D
:103FA00015460E46042004F0CDFE80461148C06838
:103FB000C16C006D0F4406440D440444ADF800701C
:103FC000ADF80450ADF80260ADF8064068460BF05D
:103FD0002FFF07E023462A463146384604F0BAF957
:103FE0000BF0DAFE0028F5D1404604F0ABFEBDE848
:103FF000FC81000074180020B0F90630B0F90420EC
:10400000B0F90210B0F90000FFF7C6BF2DE9F84380
:104010001C00DDE9089816460F46054602D10AF055
:1040200049FF044600962E6843464A4621462846E4
:10403000B047060035D00AF031FF8146698A304624
:104040000AF005FC30460BF080FD48460BF07DFD84
:104050004FF000080CE000BFCDF8008055F81CCFF1
:1040600000231A4649462846E047E0B10BF06DFDB3
:104070007F1E002FF0DC1D2148460BF0D6FB601C94
:104080000ED00AF03DFF30B1FFF712FF8469B44251
:1040900001D02000F8D1B44202D030460BF0B0FC81
:1040A0003046BDE8F88330460AF008FE0020F8E705
:1040B0002DE9F0411C4616460D460746022B02DB51
:1040C0000020BDE8F0811C20FFF722FE0028F8D078
:1040D0000DB105610AE0094A52F8241009B905E05A
:1040E00011460A68002AFBD1096901618461868250
:1040F000002101604160C0E90217E2E79818002042
:1041000070B51D46FFF7D4FF040009D000F00EF88B
:10411000E068006820B90348006800EB850084650A
:10412000204670BD80180020FFF7D0BD70B590B359
:104130008269022A30DA1E4C54F8221019B944F868
:10414000220032E019464B68002BFBD106E0CB6819
:10415000C5681B682D68AB4203DD09680029F6D1EC
:104160001AE0C1B1CB68C6681B683668B3420CD18F
:10417000838A012B05D008E01946DB681B68AB4237
:1041800003DB0B68002BF7D129B14B6833B1186002
:104190004A68426004E0FFE7012070BD44F8220055
:1041A0004860884200D100210160002070BD0000FD
:1041B0009818002012F00CBF022801DB0020704785
:1041C000054951F8200004E0C16809680029F6D0CB
:1041D00000680028F8D1704798180020F8B51646F6
:1041E0000F4605004FF000040FD00C20FFF737FDFD
:1041F00004000AD0FFF71AFE05490090C0E9001537
:10420000078146816846FFF73BFE2046F8BD000067
:10421000ECC10408F8B5074615460E460C20FFF71A
:104220001EFD04000AD0FFF701FE05490090C0E919
:104230000017068145816846FFF722FE2046F8BD3B
:1042400078CA04082DE9F8431D461646884604003E
:104250000CD0FFF7EBFD0090006807686846FFF799
:104260000FFE2B46324641462046B847BDE8F8834C
:1042700070B5044601F079FC051908E000F0F4FA85
:10428000052C01DD052000E0204601F061FC01F075
:104290006CFC2C1A002CF1DC70BD00002DE9FC47F1
:1042A00006005BD000F0CCFB3B4C81462068B0F9A7
:1042B000228000F027FC216807468A8CD01B888466
:1042C00041E000BF47F6FF71304602F021FB824615
:1042D0000146304602F0F2FA2168054691F82C00BA
:1042E00000F0030001283FD0022839D000204A8C7A
:1042F000101A4884ADF800006A1E1044ADF804009E
:10430000888CADF80200A9F101010844ADF806005F
:104310006A465146304601F00FFE2168BDF80200A2
:1043200088845146304601F0EDFA064430780A2878
:104330001CD00D281AD0BDF80000216828444884FC
:10434000307818B1761C30780028BBD12068818C79
:1043500039448184818D21F003018185BDE8FC878A
:1043600005EBD5704010C2E72846C0E7206890F8FA
:104370002C1001F0030101290BD0022909D0018C76
:10438000418431780A29DBD1828C02EB09018184D6
:10439000D6E7A0F82280F4E780180020024B1B68C3
:1043A00059849A84FFF77ABF8018002047F6FF737C
:1043B000AFF300802DE9FC411F46904606000D46F4
:1043C0004FF0000416D065B108460BF0A3FB0400C3
:1043D00007D002462946684602F007FB68460BF004
:1043E00099FB3B4642462946304601F0FDFD2046FA
:1043F0000BF090FBBDE8FC812DE9FF4F87B09046A4
:104400008946070079D00C68D9F8045021B228B247
:10441000401A401C029000F013FB064618F00C0FE7
:104420001ED038460A9A029901F075FB08F00C017B
:10443000042904D0082902D00C2911D104E0291440
:1044400000FB1610401C09E02114C1EB254200FBC3
:104450001620401C00EBD07001EB600060F31F449D
:1044600048460BF057FB5FEA000B09D0024649466D
:1044700004A8CDE9044502F0B8FA04A80BF04AFB01
:10448000A6F1010A38460A9A029902F02BFC039021
:104490000AEB244060F31F45CDE9004538460399F7
:1044A00002F00CFA18F003010ED0012928D00229DD
:1044B0000ED1B9F90420B9F90010521A101A00EB04
:1044C000D07001EB600001E0B9F80000ADF8000029
:1044D0006A463846039901F02FFD38460A9A029938
:1044E00002F0F6FB074406EB244060F31F443878E3
:1044F0000028C7D158460BF00DFB0BB0BDE8F08F7C
:10450000B9F80410081A401CE0E700007CB5064624
:1045100010480068C36C006D5D1884183188681EEF
:104520000844ADF80400ADF800507188601E0844DE
:10453000ADF80600ADF8024068460BF079FC06E0E5
:10454000224629463046FEF72FFA0BF025FC0028BC
:10455000F6D17CBD801800201CB50A46014668468D
:1045600002F032FB2448BDF80010006830F84C2FF0
:104570001144ADF80010BDF8021082881144ADF866
:104580000210BDF8041002881144ADF80410BDF803
:10459000061080880844ADF8060068460BF048FC19
:1045A00027E000BFBDF900400BE000BFBDF90210DD
:1045B000204603F071FEBDF90610204603F06CFEA4
:1045C000A41CBDF90400A042F0DABDF902400AE0E3
:1045D000BDF90000214603F05FFEBDF9040021464D
:1045E00003F05AFEA41CBDF90600A042F0DA0BF05D
:1045F000D3FB0028D6D11CBD801800202DE9F04F38
:104600000C46164987B00D68DDE91098E96C0F1863
:10461000286D8D180619C418ADF81070ADF8145037
:10462000ADF81260ADF8164004A80BF001FC0028AC
:1046300011D0DFF82CB04FF0000ACDE90098CDE999
:1046400002BA2B462246394630460EF063FC0BF088
:10465000A3FB0028F1D107B0BDE8F08F801800203F
:10466000018300082DE9F04F164C87B02568DDE97D
:104670001098EC6C2718286DA5184618C418ADF8CA
:104680001070ADF81450ADF81260ADF8164004A8E3
:104690000BF0CEFB002811D0DFF82CB04FF0010A50
:1046A000CDE90098CDE902BA23462A46314638467C
:1046B0000EF030FC0BF070FB0028F1D107B0BDE824
:1046C000F08F000080180020418200082DE9FC4195
:1046D000104F04463B68D86C4518196DADF8005072
:1046E0000E198418ADF80440ADF80260ADF806600C
:1046F00068460BF09DFB08E0386822463146406E64
:104700000368284698470BF047FB0028F4D1BDE822
:10471000FC810000801800202DE9F0410B4C256839
:10472000EC6C2718286DA5184618C41800200BF04B
:104730007FFB07E023462A4631463846FEF782F9DA
:104740000BF02AFB0028F5D1BDE8F081801800208D
:104750007CB50E4D2A68D36C1E18106DADF8046040
:104760004418ADF80060ADF80640ADF80240684668
:104770000BF05EFB07E028682146406E4268304639
:1047800090470BF009FB0028F5D17CBD8018002074
:104790002DE9FC411C4C2468E66C94F818C03718CD
:1047A000206DACF1010C4518C418A7EB0C001644A1
:1047B000ADF8000006EB0C00ADF80400A5EB0C0012
:1047C000ADF8020004EB0C00ADF8060068460BF0F3
:1047D0002FFB15E032462946384603F031FD3246BC
:1047E0002146384603F02CFD621E691C384603F052
:1047F00087FD621E691C304603F082FD0BF0CCFA87
:104800000028E7D1BDE8FC81801800207CB50E4B64
:104810001B68DC6C2618186DADF80060451884180C
:10482000ADF80460ADF80250ADF8064068460BF0F4
:10483000FFFA06E022462946304603F061FD0BF000
:10484000ABFA0028F6D17CBD8018002070B50C466C
:10485000054600F0E1F810B10121C0E90014284636
:10486000BDE870400BF01ABA10B5002400E0012436
:1048700000F004F80028FAD1204610BD094810B510
:104880000068002410B1804700B101240AF0B2FA98
:1048900000B101240448006810B1804700B1012430
:1048A000204610BDA4180020A01800202DE9FC41CE
:1048B0000F4C2568EC6C2718286DA5184618C418ED
:1048C000ADF80070ADF80450ADF80260ADF80640E8
:1048D00068460BF0ADFA07E023462A4631463846D3
:1048E00003F038FD0BF058FA0028F5D1BDE8FC8143
:1048F00080180020B0F90630B0F90420B0F9021099
:10490000B0F90000FFF7D2BF08B50B46002805D06C
:10491000009281888268C08800F001F808BD10B557
:104920000828029C30D008DC04FB01F401280AD0DE
:10493000022813D0042804D11CE0102828D02028F5
:104940002CD0002010BD04EBD30003F00701105C55
:10495000C1F10701C84000F0010010BD04EB930055
:104960000621105C01EA4301C1F10601C84000F0D4
:10497000030010BD04EB5300D907105C02D000F017
:104980000F0010BD000910BD04FB0130105C10BD0C
:10499000481004FB003032F8100010BD881004FBF2
:1049A000003052F8200010BD034951F82000C168C2
:1049B0008A6A0821104700009818002010B503F0FB
:1049C0007DFEBDE8104003F061BF000002490968A8
:1049D000C9694A680021104780180020024A1268FD
:1049E000D26952681047000080180020002801D0CA
:1049F0000AF044BA704710B503F068FEBDE81040F5
:104A000003F044BF0021022802D2024951F82010CD
:104A100008467047F41800201FB50021019102914B
:104A200003912A21009169460AF0FAFE039804B026
:104A300010BD000001480068007C7047801800200D
:104A400002480068C069407E70470000801800205E
:104A500070B514460D4603F0B7FE002802D00020C2
:104A60002860206070BD01F07DBF10B5044601F0E4
:104A70006BFF01462046BDE8104001F01FBF00005B
:104A80002DE9F74306464FF0000801984446474693
:104A9000154618B301F008FF804601980078D8B990
:104AA0001CE029467F1C019801F032FF8146014637
:104AB000A5EB0905019801F001FFA04200DC2046AA
:104AC00004464946019800F01DFF019908440190F1
:104AD00001A801F061FF08B9002DE2D10848641E69
:104AE0000168498C318000682144B0F9240070804D
:104AF00008FB0700B180401EF080BDE8FE83000087
:104B0000801800200A490020096891F82C2002F042
:104B10000C02042A07D0082A01D00C2A02D1C86945
:104B2000007E40087047C869007E401E7047000044
:104B300080180020017EC07E11FB00F0704700004D
:104B4000024951F820000069006870479818002059
:104B5000024951F820000069406870479818002009
:104B600070B50D460FF0E6FE044628460FF0EAFE4B
:104B7000204370BD124810B5016821F001010160A9
:104B80001048012181601049016000680F49884286
:104B900000D0FEE701F002F90D492E20087000F068
:104BA000E9FF0C4810F0E8F814F0BEFE04460021BE
:104BB000084600F0EFFD0AF00FFC204610BD000093
:104BC000002000E000300240C2A507F4CDB5E8B5F2
:104BD000741800206CEE00201CB520B90C48006849
:104BE000006E002812D0FFF721F900904469684652
:104BF000FFF746F9002C09D02046FFF717F901907E
:104C000081688968884701A8FFF73AF91CBD000050
:104C10008018002001490A4600F002B801F0FFFFA9
:104C20002DE9F04387B015460C465FEA000842D0F4
:104C3000002000F081FD814620480068066E404655
:104C4000FFF7F4F800900068806900F05FFD074608
:104C500040F6FF70C44204D10098B0F90440B0F9A6
:104C600006500098611E0289ADF804401144ADF869
:104C700008104189681E0844ADF80650ADF80A00D6
:104C800009F0C6FE6846FFF7FBF801A80BF0D0F864
:104C900006E02A462146404600F07AFB0BF07CF8FD
:104CA0000028F6D1384600F031FD304600F092F988
:104CB000484600F041FD07B0BDE8F08380180020B1
:104CC00038B50024009400F001F838BD2DE9FE4FFE
:104CD000834619488A46194900680C9E9846407CCC
:104CE0009146002751F82040E1680968042903D063
:104CF0002468002CF8D100E014B9FFF75DFA0446EF
:104D00000121E068C26A20469047050011D024695D
:104D1000A0688047401C02D1094C46F0010600966D
:104D2000CDE9015443464A465146584600F0D6F96B
:104D300007463846BDE8FE8F8018002098180020EE
:104D400058B00408FEB50546DDE909640020089F57
:104D5000002C05D00097CDE90164284600F0BEF98B
:104D6000FEBD000038B5040018D00D480068006E84
:104D7000A04201D100F0C0FC2046FFF757F8009098
:104D8000406908B100F0B5FE00980068FFF7CCF963
:104D90006846FFF775F82046FEF77CFF38BD000037
:104DA000801800202DE9FF4F0746464883B09946FA
:104DB0000068DDF840B08A46447C4348005701282B
:104DC000204606DD03F02AFD8046204603F032FD32
:104DD00005E003F012FD8046204603F014FD044672
:104DE00017B302A901A8FFF73EFEB7F90060002E35
:104DF00000DA0026B7F90250002D00DA00250199EB
:104E0000B7F904004144491E10F037FC804602986F
:104E10000119B7F90600491E10F02FFCA8EB060295
:104E2000441B521C641C02E0002635464246B9F180
:104E3000000F01D1C4F10009002A01DD002C03DCC0
:104E4000002007B0BDE8F08F4B4629463046CDF82C
:104E500000B0FFF73BFF5FEA000909D000F080F8DF
:104E60008046484600F0B6F80027DFF860B01FE043
:104E70005146059888470120E3E7E11B414502DAE6
:104E8000484600F091F83FB1EA193146484600F033
:104E9000C3F84846FFF7A0FE514605988847DBF85F
:104EA000001009B1002088474846FFF7B3FE474489
:104EB000A742E2DB4846FFF755FF002000F08AF8E2
:104EC000BEE7000080180020B8180020781A0020E3
:104ED00038B5002460B1FEF7A9FF009000680069B2
:104EE0008068804704F042FA04466846FEF7C8FF2F
:104EF000204638BD38B5002808D0FEF797FF00F1EE
:104F0000180400906846FEF7BBFF204638BD00003D
:104F100038B5002418B907480068006E38B1FEF7AC
:104F200085FF0090B0F904406846FEF7A9FF2046CF
:104F300038BD00008018002038B5002418B9074893
:104F40000068006E38B1FEF771FF0090B0F90640BE
:104F50006846FEF795FF204638BD00008018002007
:104F600038B5002418B907480068006E38B1FEF75C
:104F70005DFF0090B0F90A406846FEF781FF2046C9
:104F800038BD00008018002070B505460024284672
:104F90000CF034F8641C18B1BDE8704000F068B83B
:104FA000052CF4DB70BD000038B50C4620B908486C
:104FB0000068006E00280AD0FEF738FF0090B0F9B4
:104FC0000A10A14200DD44816846FEF759FF38BD52
:104FD00080180020F8B50F4E05003068046E16D01A
:104FE0000CB100F089FB09F02BFE2846FEF71EFFEE
:104FF000009031680D660068FFF798F86846FEF784
:105000003FFF03F055FF03F067FE2046F8BD00F0B8
:1050100073FBFAE7801800207CB515460C4620B9D2
:1050200012480068006E00281FD0FEF7FFFE2DB268
:105030000090C58024B2848003F04EFE0098406941
:1050400080B1FEF7F3FE009A0190B2F9081081805A
:10505000B2F90A20C28011B10AB10480458001A8CA
:10506000FEF70EFF6846FEF70BFF7CBD80180020A0
:1050700001490A4600F002B801F0FFFF7FB515466E
:105080000C46060028D0FEF7D1FE40F6FF710190D5
:10509000CC4203D1B0F90440B0F906500289611E38
:1050A0001144ADF80840ADF80C104189681E084461
:1050B000ADF80E00ADF80A5001A8FEF7E1FE02A817
:1050C0000AF0B6FE06E02A462146304600F048F9CE
:1050D0000AF062FE0028F6D17FBD00002DE9FF4FE7
:1050E000DFF8E8B083B01C46DBF80010DDE91060A3
:1050F00092464FF000084B7C42461299FEF7D8FFCB
:10510000050060D028698068804704F02FF9814647
:105110000AFB09F1C91DCF08FEF796FEF10705D17C
:10512000C11700EB9170801000EB4000002C09DCEF
:105130001FB11838B0FBF7F000E000206442A04235
:1051400000DC0446F00707D10090DDE903012346A7
:10515000524600F057FC8046002C03DC2846FEF740
:10516000E3FF30E004FB07F01830F10702D0FEF750
:1051700071FD01E0FEF773FD06001CD0FEF756FE40
:1051800001900560039981800499C180A0F808A06E
:105190004481C0F81480C0E9037901A8FEF770FECD
:1051A0001298AE602861DBF80000407CA8613046B0
:1051B00007B0BDE8F08F2846FEF7B6FF5FEA0800AB
:1051C00001D0FEF767FD0020F2E700008018002004
:1051D0002DE9F74F8EB0144689460E98FEF726FE4D
:1051E0000990B0F908B0B0F90A6000680069406839
:1051F0000C9009A8FEF744FE564D574F2868407C96
:1052000057F82000C1688A6A08219047079018283B
:1052100001D3202007902868407C57F820000069BF
:10522000069003C80B904D48814201D0012000E058
:1052300000200A90002000F0ABFC00287DD12868F7
:1052400009EB0B01B0F90C20891A491E002902DD77
:10525000ABEB010500E05D46B0F90810494505DDFE
:10526000A1EB090189446D1A089101E00021089120
:10527000002D6BDDB0F90E20A119891A491E0029F5
:1052800002DDA6EB010800E0B046B0F90A00A0423A
:1052900004DD061B3444A8EB060800E00026B8F144
:1052A000000F53DD089801900DA95F46DDF830A08E
:1052B0000E980091FFF71EFE774300EB87010198DF
:1052C0002B4601EB800200994846CDE900A121461A
:1052D00000F02CFF0090002838D00A98E8B1DDE9F2
:1052E00006322946009800F053FDB0B90698009F99
:1052F000DA46D0F810C0BCF1000F05D004235A469E
:1053000039463846E04708E00B993868884701C7B6
:10531000AAF101005FEA000AF6D100990020079A7D
:10532000CDE90301059001200090CDE9010221465D
:105330000346641C2A46484600E007E002F07EFE71
:10534000A8F10100761C5FEA0008ABD111B0BDE8FE
:10535000F08F000080180020981800203B8900087A
:10536000F8B515460E460746FEF760FD009000684A
:105370001621C068426A0020904704466846FEF73E
:105380007FFD002C03D02A4631463846A047F8BDA1
:10539000F8B515460E460746FEF748FD00904469ED
:1053A0006846FEF76DFD3846FFF792FD0346082874
:1053B00000DD2CB12A463146384611F03DFEF8BDDD
:1053C0002A463146384611F0D7FFF8BD094A12681F
:1053D00002B10020074A1C3252F82030002B07DBB4
:1053E000A2F1180343F820104FF0FF3142F82010CB
:1053F00070470000C418002010B5002821D009B360
:105400000AB3B1F90040B2F900309C4200DA2346F9
:105410000380B1F90240B2F902309C4200DA23461F
:105420004380B1F90440B2F904309C4200DD2346C8
:105430008380B1F90610B2F90620914200DC1146D2
:10544000C18010BD11460A6802604968416010BD04
:1054500000280BD003880B44038083881944818083
:10546000418811444180C1881144C18070470000C7
:1054700070B50E4D0446D5E90001884209D10C49AA
:10548000884201D13C3000E00C3807C884E80700AE
:1054900006E090E80E0084E80E000FF05BFA28604A
:1054A000207A002800D0012070BD0000E8180020FC
:1054B00004EF00200448D0E90010814201D101200E
:1054C0007047002070470000E8180020054A10B51A
:1054D0000349116011F0AAFCBDE8104000F092B938
:1054E00001F00008A81800202DE9FC4104460D46F3
:1054F00016461F46002000900190FEF78FFC009496
:1055000001953B4632466946044800F009F880465A
:10551000FEF7AEFC4046BDE8FC810000E355000804
:105520002DE9FE4304460D4616461F460020009016
:1055300001900290FEF772FC009402956A4639468B
:1055400030460BF0F9FF8046FEF792FC4046BDE87E
:10555000FE8300007CB504460D46002000900190BB
:10556000009401956946024800F004F87CBD0000F3
:10557000E35500087CB505460E46FEF74FFC6B462A
:1055800001AA314628460FF03DF908B1002400E099
:10559000019CFEF76DFC20467CBD00007CB50446F6
:1055A0000D46002000900190009401956946024844
:1055B00000F004F87CBD0000E35500087CB505460A
:1055C0000E46FEF72BFC6B4601AA314628460FF02B
:1055D00019F908B1002400E0009CFEF749FC2046C0
:1055E0007CBD2DE9F04704460D4616461F46D5F80A
:1055F0000090A046D8F80000C11932464846FAF794
:1056000050FE3046BDE8F08770B5094C0020D4E963
:1056100000218A420AD0D2E9005610460FF0B2F9B2
:105620002060314628460AF037F8012070BD00009E
:10563000441A00202DE9FC41154DDDE908742D6860
:10564000B5F90860864200DD3046B5F90C60964237
:1056500000DA3246824219DBB5F90A608E4200DD7B
:105660003146B5F90E509D4200DA2B468B420DDBD8
:1056700000E02C46E5682D6825B1042D02D0256890
:10568000002DF6D1CDE9007403F010FABDE8FC81DD
:1056900080180020B0F90220B1F906309A4213DCDC
:1056A000B1F90220B0F906309A420DDCB0F90020C1
:1056B000B1F904309A4207DCB1F90010B0F90400E6
:1056C000814201DC012070470020704701460248FA
:1056D00070220068FAF7E5BD80180020002801D08C
:1056E00011F006B970470000024970220968FAF704
:1056F000D8BD00008018002010B503F0A3FA03F015
:10570000D7FBBDE8104009F083B9000070B504462E
:105710000548022C0068457C02D24474FFF7ECFF78
:1057200002480460284670BD80180020CC19002073
:1057300003F0A8BA03F0DEBA03F004BB034909681A
:10574000CA6900B1C8611046704700008018002087
:105750000149C861704700004418002001494860B1
:10576000704700007418002001490860704700006D
:105770004418002001494860704700004418002088
:1057800003F040BB024909688A7E8876104670475C
:1057900080180020094A30B41080094A1180094A53
:1057A0001268537C084A52F82330DA68146A0A46B1
:1057B000A446014630BC184660470000C0180020CF
:1057C000C21800208018002098180020024909689B
:1057D0000A7E087610467047801800200349096841
:1057E000B1F92C20888510467047000080180020F1
:1057F00003490968B1F92A2048851046704700001E
:105800008018002002480068002800D00047704738
:10581000681A002002498A6802B98860FFF7F2BF5F
:10582000441A002010B5040009D010F085FD204670
:1058300011F0A6FB2046BDE81040FEF72BBA10BDC4
:1058400038B50C4660B1FEF7F1FA0090808920422D
:1058500001D0012400E000246846FEF711FB00E0BF
:105860000124204638BD000038B5054600202860D8
:105870000648046844B12046FEF7D8FA0090006953
:1058800028606846FEF7FCFA204638BD541A00200E
:1058900038B504004FF000000D46086011D02046D6
:1058A000FEF7C4FA0090846844B16846FEF7E8FA4F
:1058B0002046FEF7BBFA0090006928606846FEF7B4
:1058C000DFFA204638BD00000249014808607047F1
:1058D0004C7A0408841800202DE9F041084E044653
:1058E000056830680168284688470746306841687F
:1058F00028468847284420603846BDE8F0810000EB
:10590000841800202DE9F0410C4606460025064F7C
:1059100005E0386841683046884706440544641EFF
:10592000F7D22846BDE8F081841800202DE9F04127
:105930001E46069C1746884605463A46A8687F1CC0
:105940003346D0F804C041462846E047641EF4D1EF
:10595000BDE8F08170B5B0F90040091BB0F9044012
:105960008C422CDD00F11404B0F902500069521B86
:1059700002FB0040CA1800EBE104521ED010B0EB4D
:10598000E10501F007034FF0FF0102F0070221FAE1
:1059900003F0C2F1070201FA02F1CEB221780FD072
:1059A00001436D1E04F8011B002D05DDFF22294671
:1059B0002046FAF797FC2C4420783043207070BDC5
:1059C00030400143217070BD10B5B0F90030B0F91E
:1059D0000240C91A00F114030069121B02FB0030D7
:1059E00000EBE10001F0070302788021D9400A436F
:1059F000027010BDB0F90610026951431430FAF775
:105A000078BC00002DE9F843804602F10F00001138
:105A1000470003FB07F01C46154689461430FEF785
:105A20001EF9060013D0FEF701FA0090A0F80080DE
:105A3000A0F802908580C48006498160012181819F
:105A400007616846FEF71CFA3046BDE8F88300207F
:105A5000FBE7000058CA040870B5B0F90660B0F959
:105A600004400B6800F1140596421BDD0069A34257
:105A700002FB005000EBE30214DA641EE010A0EB1E
:105A8000E30512F8010B03F00704A040C4B206E0DE
:105A900045B1083312F8014B23F007036D1E002CAB
:105AA000F6D004E0002070BD6006040E5B1C2006EA
:105AB000FAD5FF2C07D0184602E06406240E401CDD
:105AC0006606FAD400E0D81DC443640705D006E09A
:105AD00012F8014BFF2C09D108306D1EF8D5C01A01
